{
  "_format": "hh-sol-artifact-1",
  "contractName": "RSAAccumulatorVerifier",
  "sourceName": "contracts/RSAAccumulatorVerifier.sol",
  "abi": [
    {
      "inputs": [
        {
          "internalType": "bytes",
          "name": "_modulus",
          "type": "bytes"
        }
      ],
      "stateMutability": "nonpayable",
      "type": "constructor"
    },
    {
      "inputs": [],
      "name": "getModulus",
      "outputs": [
        {
          "internalType": "bytes",
          "name": "",
          "type": "bytes"
        }
      ],
      "stateMutability": "view",
      "type": "function"
    },
    {
      "inputs": [],
      "name": "owner",
      "outputs": [
        {
          "internalType": "address",
          "name": "",
          "type": "address"
        }
      ],
      "stateMutability": "view",
      "type": "function"
    },
    {
      "inputs": [
        {
          "internalType": "bytes",
          "name": "_modulus",
          "type": "bytes"
        }
      ],
      "name": "setModulus",
      "outputs": [],
      "stateMutability": "nonpayable",
      "type": "function"
    },
    {
      "inputs": [
        {
          "internalType": "bytes",
          "name": "base",
          "type": "bytes"
        },
        {
          "internalType": "bytes32",
          "name": "e",
          "type": "bytes32"
        },
        {
          "internalType": "bytes",
          "name": "provided_acc_post",
          "type": "bytes"
        }
      ],
      "name": "verify",
      "outputs": [
        {
          "internalType": "bool",
          "name": "",
          "type": "bool"
        }
      ],
      "stateMutability": "nonpayable",
      "type": "function"
    }
  ],
  "bytecode": "0x608060405234801561001057600080fd5b50604051611247380380611247833981810160405281019061003291906101fe565b80600090816100419190610468565b5033600160006101000a81548173ffffffffffffffffffffffffffffffffffffffff021916908373ffffffffffffffffffffffffffffffffffffffff1602179055505061053a565b6000604051905090565b600080fd5b600080fd5b600080fd5b600080fd5b6000601f19601f8301169050919050565b7f4e487b7100000000000000000000000000000000000000000000000000000000600052604160045260246000fd5b6100f0826100a7565b810181811067ffffffffffffffff8211171561010f5761010e6100b8565b5b80604052505050565b6000610122610089565b905061012e82826100e7565b919050565b600067ffffffffffffffff82111561014e5761014d6100b8565b5b610157826100a7565b9050602081019050919050565b60005b83811015610182578082015181840152602081019050610167565b60008484015250505050565b60006101a161019c84610133565b610118565b9050828152602081018484840111156101bd576101bc6100a2565b5b6101c8848285610164565b509392505050565b600082601f8301126101e5576101e461009d565b5b81516101f584826020860161018e565b91505092915050565b60006020828403121561021457610213610093565b5b600082015167ffffffffffffffff81111561023257610231610098565b5b61023e848285016101d0565b91505092915050565b600081519050919050565b7f4e487b7100000000000000000000000000000000000000000000000000000000600052602260045260246000fd5b6000600282049050600182168061029957607f821691505b6020821081036102ac576102ab610252565b5b50919050565b60008190508160005260206000209050919050565b60006020601f8301049050919050565b600082821b905092915050565b6000600883026103147fffffffffffffffffffffffffffffffffffffffffffffffffffffffffffffffff826102d7565b61031e86836102d7565b95508019841693508086168417925050509392505050565b6000819050919050565b6000819050919050565b600061036561036061035b84610336565b610340565b610336565b9050919050565b6000819050919050565b61037f8361034a565b61039361038b8261036c565b8484546102e4565b825550505050565b600090565b6103a861039b565b6103b3818484610376565b505050565b5b818110156103d7576103cc6000826103a0565b6001810190506103b9565b5050565b601f82111561041c576103ed816102b2565b6103f6846102c7565b81016020851015610405578190505b610419610411856102c7565b8301826103b8565b50505b505050565b600082821c905092915050565b600061043f60001984600802610421565b1980831691505092915050565b6000610458838361042e565b9150826002028217905092915050565b61047182610247565b67ffffffffffffffff81111561048a576104896100b8565b5b6104948254610281565b61049f8282856103db565b600060209050601f8311600181146104d257600084156104c0578287015190505b6104ca858261044c565b865550610532565b601f1984166104e0866102b2565b60005b82811015610508578489015182556001820191506020850194506020810190506104e3565b868310156105255784890151610521601f89168261042e565b8355505b6001600288020188555050505b505050505050565b610cfe806105496000396000f3fe608060405234801561001057600080fd5b506004361061004c5760003560e01c8063024ad318146100515780630f22adf4146100815780634aded5e21461009d5780638da5cb5b146100bb575b600080fd5b61006b60048036038101906100669190610673565b6100d9565b6040516100789190610719565b60405180910390f35b61009b60048036038101906100969190610734565b61028c565b005b6100a561032f565b6040516100b291906107fc565b60405180910390f35b6100c3610451565b6040516100d0919061085f565b60405180910390f35b6000808451905060006020601f836100f191906108b3565b6100fb9190610916565b9050600080805461010b90610976565b9050905060006020601f8361012091906108b3565b61012a9190610916565b9050600080805461013a90610976565b80601f016020809104026020016040519081016040528092919081815260200182805461016690610976565b80156101b35780601f10610188576101008083540402835291602001916101b3565b820191906000526020600020905b81548152906001019060200180831161019657829003601f168201915b5050505050905060606040519050858152610180602082015260206040820152610180606082015260005b8581101561020557600181016020028b0151816020026080840101526001810190506101de565b508861020082015260005b8381101561023857600181016020028301518160200261022084010152600181019050610210565b506101806020820161038060208401600060056107d05a03f1806000810361025f57600080fd5b508660200182016040525061027d888261047790919063ffffffff16565b96505050505050509392505050565b600160009054906101000a900473ffffffffffffffffffffffffffffffffffffffff1673ffffffffffffffffffffffffffffffffffffffff163373ffffffffffffffffffffffffffffffffffffffff161461031c576040517f08c379a000000000000000000000000000000000000000000000000000000000815260040161031390610a2a565b60405180910390fd5b806000908161032b9190610bf6565b5050565b6060600160009054906101000a900473ffffffffffffffffffffffffffffffffffffffff1673ffffffffffffffffffffffffffffffffffffffff163373ffffffffffffffffffffffffffffffffffffffff16146103c1576040517f08c379a00000000000000000000000000000000000000000000000000000000081526004016103b890610a2a565b60405180910390fd5b600080546103ce90610976565b80601f01602080910402602001604051908101604052809291908181526020018280546103fa90610976565b80156104475780601f1061041c57610100808354040283529160200191610447565b820191906000526020600020905b81548152906001019060200180831161042a57829003601f168201915b5050505050905090565b600160009054906101000a900473ffffffffffffffffffffffffffffffffffffffff1681565b600080600190508351835181146001811461049557600092506104d7565b600160208701838101602088015b60028483851001036104d25780518351146104c15760009650600093505b6020830192506020810190506104a3565b505050505b50508091505092915050565b6000604051905090565b600080fd5b600080fd5b600080fd5b600080fd5b6000601f19601f8301169050919050565b7f4e487b7100000000000000000000000000000000000000000000000000000000600052604160045260246000fd5b61054a82610501565b810181811067ffffffffffffffff8211171561056957610568610512565b5b80604052505050565b600061057c6104e3565b90506105888282610541565b919050565b600067ffffffffffffffff8211156105a8576105a7610512565b5b6105b182610501565b9050602081019050919050565b82818337600083830152505050565b60006105e06105db8461058d565b610572565b9050828152602081018484840111156105fc576105fb6104fc565b5b6106078482856105be565b509392505050565b600082601f830112610624576106236104f7565b5b81356106348482602086016105cd565b91505092915050565b6000819050919050565b6106508161063d565b811461065b57600080fd5b50565b60008135905061066d81610647565b92915050565b60008060006060848603121561068c5761068b6104ed565b5b600084013567ffffffffffffffff8111156106aa576106a96104f2565b5b6106b68682870161060f565b93505060206106c78682870161065e565b925050604084013567ffffffffffffffff8111156106e8576106e76104f2565b5b6106f48682870161060f565b9150509250925092565b60008115159050919050565b610713816106fe565b82525050565b600060208201905061072e600083018461070a565b92915050565b60006020828403121561074a576107496104ed565b5b600082013567ffffffffffffffff811115610768576107676104f2565b5b6107748482850161060f565b91505092915050565b600081519050919050565b600082825260208201905092915050565b60005b838110156107b757808201518184015260208101905061079c565b60008484015250505050565b60006107ce8261077d565b6107d88185610788565b93506107e8818560208601610799565b6107f181610501565b840191505092915050565b6000602082019050818103600083015261081681846107c3565b905092915050565b600073ffffffffffffffffffffffffffffffffffffffff82169050919050565b60006108498261081e565b9050919050565b6108598161083e565b82525050565b60006020820190506108746000830184610850565b92915050565b6000819050919050565b7f4e487b7100000000000000000000000000000000000000000000000000000000600052601160045260246000fd5b60006108be8261087a565b91506108c98361087a565b92508282019050808211156108e1576108e0610884565b5b92915050565b7f4e487b7100000000000000000000000000000000000000000000000000000000600052601260045260246000fd5b60006109218261087a565b915061092c8361087a565b92508261093c5761093b6108e7565b5b828204905092915050565b7f4e487b7100000000000000000000000000000000000000000000000000000000600052602260045260246000fd5b6000600282049050600182168061098e57607f821691505b6020821081036109a1576109a0610947565b5b50919050565b600082825260208201905092915050565b7f4f6e6c7920746865206f776e65722063616e20706572666f726d20746869732060008201527f616374696f6e0000000000000000000000000000000000000000000000000000602082015250565b6000610a146026836109a7565b9150610a1f826109b8565b604082019050919050565b60006020820190508181036000830152610a4381610a07565b9050919050565b60008190508160005260206000209050919050565b60006020601f8301049050919050565b600082821b905092915050565b600060088302610aac7fffffffffffffffffffffffffffffffffffffffffffffffffffffffffffffffff82610a6f565b610ab68683610a6f565b95508019841693508086168417925050509392505050565b6000819050919050565b6000610af3610aee610ae98461087a565b610ace565b61087a565b9050919050565b6000819050919050565b610b0d83610ad8565b610b21610b1982610afa565b848454610a7c565b825550505050565b600090565b610b36610b29565b610b41818484610b04565b505050565b5b81811015610b6557610b5a600082610b2e565b600181019050610b47565b5050565b601f821115610baa57610b7b81610a4a565b610b8484610a5f565b81016020851015610b93578190505b610ba7610b9f85610a5f565b830182610b46565b50505b505050565b600082821c905092915050565b6000610bcd60001984600802610baf565b1980831691505092915050565b6000610be68383610bbc565b9150826002028217905092915050565b610bff8261077d565b67ffffffffffffffff811115610c1857610c17610512565b5b610c228254610976565b610c2d828285610b69565b600060209050601f831160018114610c605760008415610c4e578287015190505b610c588582610bda565b865550610cc0565b601f198416610c6e86610a4a565b60005b82811015610c9657848901518255600182019150602085019450602081019050610c71565b86831015610cb35784890151610caf601f891682610bbc565b8355505b6001600288020188555050505b50505050505056fea2646970667358221220236d2169ebbd46f50624853690a72efa09e5bd7f8304e1d533aa713d61c5c11464736f6c634300081b0033",
  "linkReferences": {},
  "deployedLinkReferences": {}
}